{
  "contractName": "ProductLifecycle",
  "abi": [
    {
      "inputs": [],
      "stateMutability": "nonpayable",
      "type": "constructor"
    },
    {
      "anonymous": false,
      "inputs": [
        {
          "indexed": false,
          "internalType": "string",
          "name": "productId",
          "type": "string"
        },
        {
          "indexed": false,
          "internalType": "string",
          "name": "action",
          "type": "string"
        },
        {
          "indexed": true,
          "internalType": "address",
          "name": "actor",
          "type": "address"
        },
        {
          "indexed": false,
          "internalType": "uint256",
          "name": "timestamp",
          "type": "uint256"
        },
        {
          "indexed": false,
          "internalType": "string",
          "name": "note",
          "type": "string"
        },
        {
          "indexed": true,
          "internalType": "address",
          "name": "newOwner",
          "type": "address"
        },
        {
          "indexed": false,
          "internalType": "bool",
          "name": "isSuspicious",
          "type": "bool"
        },
        {
          "indexed": false,
          "internalType": "string",
          "name": "suspiciousReason",
          "type": "string"
        }
      ],
      "name": "ProductEvent",
      "type": "event"
    },
    {
      "anonymous": false,
      "inputs": [
        {
          "indexed": true,
          "internalType": "address",
          "name": "user",
          "type": "address"
        },
        {
          "indexed": false,
          "internalType": "enum ProductLifecycle.Role",
          "name": "role",
          "type": "uint8"
        }
      ],
      "name": "RoleGranted",
      "type": "event"
    },
    {
      "anonymous": false,
      "inputs": [
        {
          "indexed": false,
          "internalType": "string",
          "name": "productId",
          "type": "string"
        },
        {
          "indexed": false,
          "internalType": "address",
          "name": "actor",
          "type": "address"
        },
        {
          "indexed": false,
          "internalType": "string",
          "name": "reason",
          "type": "string"
        },
        {
          "indexed": false,
          "internalType": "uint256",
          "name": "timestamp",
          "type": "uint256"
        }
      ],
      "name": "SuspiciousActivityDetected",
      "type": "event"
    },
    {
      "inputs": [],
      "name": "MAX_ACTIVITY_PER_HOUR",
      "outputs": [
        {
          "internalType": "uint256",
          "name": "",
          "type": "uint256"
        }
      ],
      "stateMutability": "view",
      "type": "function",
      "constant": true
    },
    {
      "inputs": [],
      "name": "SUSPICIOUS_TIME_THRESHOLD",
      "outputs": [
        {
          "internalType": "uint256",
          "name": "",
          "type": "uint256"
        }
      ],
      "stateMutability": "view",
      "type": "function",
      "constant": true
    },
    {
      "inputs": [],
      "name": "SUSPICIOUS_TRANSFER_THRESHOLD",
      "outputs": [
        {
          "internalType": "uint256",
          "name": "",
          "type": "uint256"
        }
      ],
      "stateMutability": "view",
      "type": "function",
      "constant": true
    },
    {
      "inputs": [
        {
          "internalType": "string",
          "name": "",
          "type": "string"
        }
      ],
      "name": "duplicateProducts",
      "outputs": [
        {
          "internalType": "bool",
          "name": "",
          "type": "bool"
        }
      ],
      "stateMutability": "view",
      "type": "function",
      "constant": true
    },
    {
      "inputs": [
        {
          "internalType": "address",
          "name": "",
          "type": "address"
        }
      ],
      "name": "lastActivityTime",
      "outputs": [
        {
          "internalType": "uint256",
          "name": "",
          "type": "uint256"
        }
      ],
      "stateMutability": "view",
      "type": "function",
      "constant": true
    },
    {
      "inputs": [],
      "name": "owner",
      "outputs": [
        {
          "internalType": "address",
          "name": "",
          "type": "address"
        }
      ],
      "stateMutability": "view",
      "type": "function",
      "constant": true
    },
    {
      "inputs": [
        {
          "internalType": "string",
          "name": "",
          "type": "string"
        },
        {
          "internalType": "uint256",
          "name": "",
          "type": "uint256"
        }
      ],
      "name": "productHistory",
      "outputs": [
        {
          "internalType": "string",
          "name": "productId",
          "type": "string"
        },
        {
          "internalType": "string",
          "name": "action",
          "type": "string"
        },
        {
          "internalType": "address",
          "name": "actor",
          "type": "address"
        },
        {
          "internalType": "uint256",
          "name": "timestamp",
          "type": "uint256"
        },
        {
          "internalType": "string",
          "name": "note",
          "type": "string"
        },
        {
          "internalType": "address",
          "name": "newOwner",
          "type": "address"
        },
        {
          "internalType": "bool",
          "name": "isSuspicious",
          "type": "bool"
        },
        {
          "internalType": "string",
          "name": "suspiciousReason",
          "type": "string"
        }
      ],
      "stateMutability": "view",
      "type": "function",
      "constant": true
    },
    {
      "inputs": [
        {
          "internalType": "string",
          "name": "",
          "type": "string"
        }
      ],
      "name": "products",
      "outputs": [
        {
          "internalType": "string",
          "name": "productId",
          "type": "string"
        },
        {
          "internalType": "string",
          "name": "info",
          "type": "string"
        },
        {
          "internalType": "address",
          "name": "currentOwner",
          "type": "address"
        },
        {
          "internalType": "bool",
          "name": "exists",
          "type": "bool"
        },
        {
          "internalType": "uint256",
          "name": "createdAt",
          "type": "uint256"
        },
        {
          "internalType": "uint256",
          "name": "lastModified",
          "type": "uint256"
        },
        {
          "internalType": "bool",
          "name": "isSuspicious",
          "type": "bool"
        },
        {
          "internalType": "string",
          "name": "suspiciousReason",
          "type": "string"
        }
      ],
      "stateMutability": "view",
      "type": "function",
      "constant": true
    },
    {
      "inputs": [
        {
          "internalType": "address",
          "name": "",
          "type": "address"
        }
      ],
      "name": "roles",
      "outputs": [
        {
          "internalType": "enum ProductLifecycle.Role",
          "name": "",
          "type": "uint8"
        }
      ],
      "stateMutability": "view",
      "type": "function",
      "constant": true
    },
    {
      "inputs": [
        {
          "internalType": "address",
          "name": "",
          "type": "address"
        }
      ],
      "name": "userActivityCount",
      "outputs": [
        {
          "internalType": "uint256",
          "name": "",
          "type": "uint256"
        }
      ],
      "stateMutability": "view",
      "type": "function",
      "constant": true
    },
    {
      "inputs": [
        {
          "internalType": "address",
          "name": "user",
          "type": "address"
        },
        {
          "internalType": "enum ProductLifecycle.Role",
          "name": "role",
          "type": "uint8"
        }
      ],
      "name": "grantRole",
      "outputs": [],
      "stateMutability": "nonpayable",
      "type": "function"
    },
    {
      "inputs": [
        {
          "internalType": "address",
          "name": "user",
          "type": "address"
        }
      ],
      "name": "removeRole",
      "outputs": [],
      "stateMutability": "nonpayable",
      "type": "function"
    },
    {
      "inputs": [
        {
          "internalType": "string",
          "name": "_id",
          "type": "string"
        },
        {
          "internalType": "string",
          "name": "_info",
          "type": "string"
        }
      ],
      "name": "createProduct",
      "outputs": [],
      "stateMutability": "nonpayable",
      "type": "function"
    },
    {
      "inputs": [
        {
          "internalType": "string",
          "name": "_id",
          "type": "string"
        },
        {
          "internalType": "address",
          "name": "_to",
          "type": "address"
        },
        {
          "internalType": "string",
          "name": "_note",
          "type": "string"
        }
      ],
      "name": "transferProduct",
      "outputs": [],
      "stateMutability": "nonpayable",
      "type": "function"
    },
    {
      "inputs": [
        {
          "internalType": "string",
          "name": "_id",
          "type": "string"
        },
        {
          "internalType": "string",
          "name": "_note",
          "type": "string"
        }
      ],
      "name": "warrantyProduct",
      "outputs": [],
      "stateMutability": "nonpayable",
      "type": "function"
    },
    {
      "inputs": [
        {
          "internalType": "string",
          "name": "_id",
          "type": "string"
        },
        {
          "internalType": "string",
          "name": "_note",
          "type": "string"
        }
      ],
      "name": "repairProduct",
      "outputs": [],
      "stateMutability": "nonpayable",
      "type": "function"
    },
    {
      "inputs": [
        {
          "internalType": "string",
          "name": "_id",
          "type": "string"
        }
      ],
      "name": "getProduct",
      "outputs": [
        {
          "internalType": "string",
          "name": "",
          "type": "string"
        },
        {
          "internalType": "string",
          "name": "",
          "type": "string"
        },
        {
          "internalType": "address",
          "name": "",
          "type": "address"
        },
        {
          "internalType": "uint256",
          "name": "historyCount",
          "type": "uint256"
        },
        {
          "internalType": "bool",
          "name": "isSuspicious",
          "type": "bool"
        },
        {
          "internalType": "string",
          "name": "suspiciousReason",
          "type": "string"
        }
      ],
      "stateMutability": "view",
      "type": "function",
      "constant": true
    },
    {
      "inputs": [
        {
          "internalType": "string",
          "name": "_id",
          "type": "string"
        }
      ],
      "name": "getProductHistoryLength",
      "outputs": [
        {
          "internalType": "uint256",
          "name": "",
          "type": "uint256"
        }
      ],
      "stateMutability": "view",
      "type": "function",
      "constant": true
    },
    {
      "inputs": [
        {
          "internalType": "string",
          "name": "_id",
          "type": "string"
        },
        {
          "internalType": "uint256",
          "name": "idx",
          "type": "uint256"
        }
      ],
      "name": "getProductHistoryRecord",
      "outputs": [
        {
          "internalType": "string",
          "name": "",
          "type": "string"
        },
        {
          "internalType": "address",
          "name": "",
          "type": "address"
        },
        {
          "internalType": "uint256",
          "name": "",
          "type": "uint256"
        },
        {
          "internalType": "string",
          "name": "",
          "type": "string"
        },
        {
          "internalType": "address",
          "name": "",
          "type": "address"
        },
        {
          "internalType": "bool",
          "name": "",
          "type": "bool"
        },
        {
          "internalType": "string",
          "name": "",
          "type": "string"
        }
      ],
      "stateMutability": "view",
      "type": "function",
      "constant": true
    },
    {
      "inputs": [
        {
          "internalType": "string",
          "name": "_id",
          "type": "string"
        }
      ],
      "name": "isProductSuspicious",
      "outputs": [
        {
          "internalType": "bool",
          "name": "",
          "type": "bool"
        }
      ],
      "stateMutability": "view",
      "type": "function",
      "constant": true
    },
    {
      "inputs": [
        {
          "internalType": "string",
          "name": "_id",
          "type": "string"
        }
      ],
      "name": "getSuspiciousReason",
      "outputs": [
        {
          "internalType": "string",
          "name": "",
          "type": "string"
        }
      ],
      "stateMutability": "view",
      "type": "function",
      "constant": true
    },
    {
      "inputs": [
        {
          "internalType": "string",
          "name": "_id",
          "type": "string"
        }
      ],
      "name": "clearSuspiciousStatus",
      "outputs": [],
      "stateMutability": "nonpayable",
      "type": "function"
    }
  ],
  "bytecode": "0x608060405234801561001057600080fd5b5060008054336001600160a01b0319909116811782558152600160208190526040909120805460ff1916909117905561328e8061004e6000396000f3fe608060405234801561001057600080fd5b50600436106101425760003560e01c806358e47e54116100b8578063993746421161007c578063993746421461033c5780639ceed46e1461036c578063a5632c921461037f578063e97b436814610387578063eb2755dc1461039a578063ff7e1c3f146103ad57600080fd5b806358e47e54146102b157806368111cce146102d157806379a6c650146102f657806387592bce146102fe5780638da5cb5b1461031157600080fd5b80633e8402361161010a5780633e8402361461021d5780633e8578e3146102325780634673b87a14610252578063472f335d146102655780634762155d146102785780634acf9e6d1461028b57600080fd5b80630186a4231461014757806301970b111461017757806306433b291461019e5780631911db9d146101bf578063268257df146101fd575b600080fd5b61015a6101553660046129a4565b6103b5565b60405161016e989796959493929190612a31565b60405180910390f35b61018a610185366004612aa9565b6105b0565b60405161016e989796959493929190612aee565b6101b16101ac3660046129a4565b6107e1565b60405190815260200161016e565b6101ed6101cd3660046129a4565b805160208183018101805160048252928201919093012091525460ff1681565b604051901515815260200161016e565b6101b161020b366004612b82565b60066020526000908152604090205481565b61023061022b366004612ba4565b610860565b005b6101b1610240366004612b82565b60056020526000908152604090205481565b6101ed6102603660046129a4565b61098c565b6102306102733660046129a4565b610a07565b610230610286366004612b82565b610b70565b61029e610299366004612aa9565b610c59565b60405161016e9796959493929190612bdf565b6102c46102bf3660046129a4565b610f53565b60405161016e9190612c4d565b6102e46102df3660046129a4565b611052565b60405161016e96959493929190612c60565b6101b1600a81565b61023061030c366004612cc4565b6112cb565b600054610324906001600160a01b031681565b6040516001600160a01b03909116815260200161016e565b61035f61034a366004612b82565b60016020526000908152604090205460ff1681565b60405161016e9190612d3e565b61023061037a366004612cc4565b61159a565b6101b1606481565b610230610395366004612cc4565b611800565b6102306103a8366004612d66565b6119f2565b6101b1603c81565b80516020818301810180516002825292820191909301209152805481906103db90612dda565b80601f016020809104026020016040519081016040528092919081815260200182805461040790612dda565b80156104545780601f1061042957610100808354040283529160200191610454565b820191906000526020600020905b81548152906001019060200180831161043757829003601f168201915b50505050509080600101805461046990612dda565b80601f016020809104026020016040519081016040528092919081815260200182805461049590612dda565b80156104e25780601f106104b7576101008083540402835291602001916104e2565b820191906000526020600020905b8154815290600101906020018083116104c557829003601f168201915b505050600284015460038501546004860154600587015460068801805497986001600160a01b0386169860ff600160a01b909704871698509496509294919091169261052d90612dda565b80601f016020809104026020016040519081016040528092919081815260200182805461055990612dda565b80156105a65780601f1061057b576101008083540402835291602001916105a6565b820191906000526020600020905b81548152906001019060200180831161058957829003601f168201915b5050505050905088565b815160208184018101805160038252928201918501919091209190528054829081106105db57600080fd5b9060005260206000209060070201600091509150508060000180546105ff90612dda565b80601f016020809104026020016040519081016040528092919081815260200182805461062b90612dda565b80156106785780601f1061064d57610100808354040283529160200191610678565b820191906000526020600020905b81548152906001019060200180831161065b57829003601f168201915b50505050509080600101805461068d90612dda565b80601f01602080910402602001604051908101604052809291908181526020018280546106b990612dda565b80156107065780601f106106db57610100808354040283529160200191610706565b820191906000526020600020905b8154815290600101906020018083116106e957829003601f168201915b505050506002830154600384015460048501805494956001600160a01b03909316949193509061073590612dda565b80601f016020809104026020016040519081016040528092919081815260200182805461076190612dda565b80156107ae5780601f10610783576101008083540402835291602001916107ae565b820191906000526020600020905b81548152906001019060200180831161079157829003601f168201915b50505050600583015460068401805493946001600160a01b03831694600160a01b90930460ff1693509161052d90612dda565b6000816002816040516107f49190612e0e565b9081526040519081900360200190206002015460ff600160a01b909104166108375760405162461bcd60e51b815260040161082e90612e2a565b60405180910390fd5b6003836040516108479190612e0e565b9081526040519081900360200190205491505b50919050565b6000546001600160a01b031633146108ba5760405162461bcd60e51b815260206004820152601f60248201527f4f6e6c7920636f6e7472616374206f776e65722063616e20646f207468697300604482015260640161082e565b60008160048111156108ce576108ce612d28565b0361090a5760405162461bcd60e51b815260206004820152600c60248201526b496e76616c696420726f6c6560a01b604482015260640161082e565b6001600160a01b03821660009081526001602081905260409091208054839260ff199091169083600481111561094257610942612d28565b0217905550816001600160a01b03167faa259565575c834bc07e74dca784b4071676133ac78513b431afb6ee7edae121826040516109809190612d3e565b60405180910390a25050565b60008160028160405161099f9190612e0e565b9081526040519081900360200190206002015460ff600160a01b909104166109d95760405162461bcd60e51b815260040161082e90612e2a565b6002836040516109e99190612e0e565b9081526040519081900360200190206005015460ff16915050919050565b6001803360009081526001602052604090205460ff166004811115610a2e57610a2e612d28565b14610a4b5760405162461bcd60e51b815260040161082e90612e5a565b81600281604051610a5c9190612e0e565b9081526040519081900360200190206002015460ff600160a01b90910416610a965760405162461bcd60e51b815260040161082e90612e2a565b6000600284604051610aa89190612e0e565b9081526040805160209281900383018120600501805460ff19169415159490941790935590820181526000825251600290610ae4908690612e0e565b90815260200160405180910390206006019081610b019190612edc565b50600283604051610b129190612e0e565b908152604051908190036020018120600201546001600160a01b03169033907fa72c8d362ca7a9779bbe73902943559243961cc5ea403515fa240fa64bca1b0a90610b639087904290600090612f9c565b60405180910390a3505050565b6001803360009081526001602052604090205460ff166004811115610b9757610b97612d28565b14610bb45760405162461bcd60e51b815260040161082e90612e5a565b336001600160a01b03831603610c0c5760405162461bcd60e51b815260206004820152601b60248201527f43616e6e6f742072656d6f766520796f7572206f776e20726f6c650000000000604482015260640161082e565b6001600160a01b038216600081815260016020526040808220805460ff19169055517faa259565575c834bc07e74dca784b4071676133ac78513b431afb6ee7edae1219161098091612d3e565b60606000806060600080606088600281604051610c769190612e0e565b9081526040519081900360200190206002015460ff600160a01b90910416610cb05760405162461bcd60e51b815260040161082e90612e2a565b60038a604051610cc09190612e0e565b908152604051908190036020019020548910610d145760405162461bcd60e51b8152602060048201526013602482015272496e646578206f7574206f6620626f756e647360681b604482015260640161082e565b600060038b604051610d269190612e0e565b90815260200160405180910390208a81548110610d4557610d45613046565b60009182526020909120600790910201600281015460038201546005830154600184018054949550936001600160a01b0393841693600487019290811691600160a01b90910460ff169060068801908790610d9f90612dda565b80601f0160208091040260200160405190810160405280929190818152602001828054610dcb90612dda565b8015610e185780601f10610ded57610100808354040283529160200191610e18565b820191906000526020600020905b815481529060010190602001808311610dfb57829003601f168201915b50505050509650838054610e2b90612dda565b80601f0160208091040260200160405190810160405280929190818152602001828054610e5790612dda565b8015610ea45780601f10610e7957610100808354040283529160200191610ea4565b820191906000526020600020905b815481529060010190602001808311610e8757829003601f168201915b50505050509350808054610eb790612dda565b80601f0160208091040260200160405190810160405280929190818152602001828054610ee390612dda565b8015610f305780601f10610f0557610100808354040283529160200191610f30565b820191906000526020600020905b815481529060010190602001808311610f1357829003601f168201915b505050505090509850985098509850985098509850505092959891949750929550565b606081600281604051610f669190612e0e565b9081526040519081900360200190206002015460ff600160a01b90910416610fa05760405162461bcd60e51b815260040161082e90612e2a565b600283604051610fb09190612e0e565b90815260200160405180910390206006018054610fcc90612dda565b80601f0160208091040260200160405190810160405280929190818152602001828054610ff890612dda565b80156110455780601f1061101a57610100808354040283529160200191611045565b820191906000526020600020905b81548152906001019060200180831161102857829003601f168201915b5050505050915050919050565b606080600080600060608660028160405161106d9190612e0e565b9081526040519081900360200190206002015460ff600160a01b909104166110a75760405162461bcd60e51b815260040161082e90612e2a565b60006002896040516110b99190612e0e565b9081526040519081900360200181206002810154909250829160018301916001600160a01b0316906003906110ef908e90612e0e565b908152604051908190036020019020546005850154845460ff909116906006870190869061111c90612dda565b80601f016020809104026020016040519081016040528092919081815260200182805461114890612dda565b80156111955780601f1061116a57610100808354040283529160200191611195565b820191906000526020600020905b81548152906001019060200180831161117857829003601f168201915b505050505095508480546111a890612dda565b80601f01602080910402602001604051908101604052809291908181526020018280546111d490612dda565b80156112215780601f106111f657610100808354040283529160200191611221565b820191906000526020600020905b81548152906001019060200180831161120457829003601f168201915b5050505050945080805461123490612dda565b80601f016020809104026020016040519081016040528092919081815260200182805461126090612dda565b80156112ad5780601f10611282576101008083540402835291602001916112ad565b820191906000526020600020905b81548152906001019060200180831161129057829003601f168201915b50505050509050975097509750975097509750505091939550919395565b6001803360009081526001602052604090205460ff1660048111156112f2576112f2612d28565b1461130f5760405162461bcd60e51b815260040161082e90612e5a565b60028360405161131f9190612e0e565b9081526040519081900360200190206002015460ff600160a01b90910416156113835760405162461bcd60e51b815260206004820152601660248201527550726f6475637420616c72656164792065786973747360501b604482015260640161082e565b60008351116113d45760405162461bcd60e51b815260206004820152601a60248201527f50726f647563742049442063616e6e6f7420626520656d707479000000000000604482015260640161082e565b60008251116114255760405162461bcd60e51b815260206004820152601c60248201527f50726f6475637420696e666f2063616e6e6f7420626520656d70747900000000604482015260640161082e565b600061143084611f52565b905061143b33611f7d565b60408051602080820183526000808352835161010081018552888152918201879052338285015260016060830152426080830181905260a083015260c0820181905260e082018390529251600290611494908990612e0e565b908152604051908190036020019020815181906114b19082612edc565b50602082015160018201906114c69082612edc565b50604082015160028201805460608501516001600160a01b039093166001600160a81b031990911617600160a01b921515929092029190911790556080820151600382015560a0820151600482015560c082015160058201805460ff191691151591909117905560e082015160068201906115419082612edc565b50905050611592866040518060400160405280600781526020016610dc99585d195960ca1b815250336040518060400160405280600781526020016610dc99585d195960ca1b81525033878761209f565b505050505050565b816002816040516115ab9190612e0e565b9081526040519081900360200190206002015460ff600160a01b909104166115e55760405162461bcd60e51b815260040161082e90612e2a565b82336001600160a01b03166002826040516116009190612e0e565b908152604051908190036020019020600201546001600160a01b0316146116395760405162461bcd60e51b815260040161082e9061305c565b6004803360009081526001602052604090205460ff16600481111561166057611660612d28565b1461167d5760405162461bcd60e51b815260040161082e90612e5a565b60006116a9336040518060400160405280600881526020016777617272616e747960c01b815250612234565b806116b857506116b8866122c2565b60408051602081019091526000815290915081156117505760405180606001604052806025815260200161323460259139905060016002886040516116fd9190612e0e565b908152604051908190036020018120600501805492151560ff19909316929092179091558190600290611731908a90612e0e565b9081526020016040518091039020600601908161174e9190612edc565b505b61175933611f7d565b6117b3876040518060400160405280600881526020016757617272616e747960c01b815250338960028c6040516117909190612e0e565b908152604051908190036020019020600201546001600160a01b0316878761209f565b81156117f7577f7fcdd728f146b0fa688b3c81bd24697ed9af564992a014479902f212cec651be873383426040516117ee9493929190613093565b60405180910390a15b50505050505050565b816002816040516118119190612e0e565b9081526040519081900360200190206002015460ff600160a01b9091041661184b5760405162461bcd60e51b815260040161082e90612e2a565b82336001600160a01b03166002826040516118669190612e0e565b908152604051908190036020019020600201546001600160a01b03161461189f5760405162461bcd60e51b815260040161082e9061305c565b6004803360009081526001602052604090205460ff1660048111156118c6576118c6612d28565b146118e35760405162461bcd60e51b815260040161082e90612e5a565b600061190d33604051806040016040528060068152602001653932b830b4b960d11b815250612234565b8061191c575061191c86612514565b60408051602081019091526000815290915081156119b45760405180606001604052806023815260200161321160239139905060016002886040516119619190612e0e565b908152604051908190036020018120600501805492151560ff19909316929092179091558190600290611995908a90612e0e565b908152602001604051809103902060060190816119b29190612edc565b505b6119bd33611f7d565b6117b387604051806040016040528060068152602001652932b830b4b960d11b815250338960028c6040516117909190612e0e565b82600281604051611a039190612e0e565b9081526040519081900360200190206002015460ff600160a01b90910416611a3d5760405162461bcd60e51b815260040161082e90612e2a565b83336001600160a01b0316600282604051611a589190612e0e565b908152604051908190036020019020600201546001600160a01b031614611a915760405162461bcd60e51b815260040161082e9061305c565b6001600160a01b038416611ad95760405162461bcd60e51b815260206004820152600f60248201526e496e76616c6964206164647265737360881b604482015260640161082e565b336001600160a01b03851603611b315760405162461bcd60e51b815260206004820152601b60248201527f43616e6e6f74207472616e7366657220746f20796f757273656c660000000000604482015260640161082e565b336000908152600160208190526040808320546001600160a01b038816845292205460ff928316921690826004811115611b6d57611b6d612d28565b03611c11576002816004811115611b8657611b86612d28565b1480611ba357506003816004811115611ba157611ba1612d28565b145b611c0c5760405162461bcd60e51b815260206004820152603460248201527f4d616e7566616374757265722063616e206f6e6c79207472616e73666572207460448201527337902232b0b632b91037b91021bab9ba37b6b2b960611b606482015260840161082e565b611db0565b6002826004811115611c2557611c25612d28565b03611cbe576002816004811115611c3e57611c3e612d28565b1480611c5b57506003816004811115611c5957611c59612d28565b145b611c0c5760405162461bcd60e51b815260206004820152602e60248201527f4465616c65722063616e206f6e6c79207472616e7366657220746f204465616c60448201526d32b91037b91021bab9ba37b6b2b960911b606482015260840161082e565b6003826004811115611cd257611cd2612d28565b03611d5e576004816004811115611ceb57611ceb612d28565b14611c0c5760405162461bcd60e51b815260206004820152603a60248201527f437573746f6d65722063616e206f6e6c79207472616e7366657220746f20576160448201527f7272616e74792043656e74657220666f722077617272616e7479000000000000606482015260840161082e565b60405162461bcd60e51b815260206004820152602160248201527f5468697320726f6c652063616e6e6f74207472616e736665722070726f6475636044820152601d60fa1b606482015260840161082e565b6000611dbd8833896127af565b6040805160208101909152600081529091508115611e55576040518060600160405280602481526020016131ed602491399050600160028a604051611e029190612e0e565b908152604051908190036020018120600501805492151560ff19909316929092179091558190600290611e36908c90612e0e565b90815260200160405180910390206006019081611e539190612edc565b505b8760028a604051611e669190612e0e565b908152602001604051809103902060020160006101000a8154816001600160a01b0302191690836001600160a01b031602179055504260028a604051611eac9190612e0e565b90815260405190819003602001902060040155611ec833611f7d565b611ed188611f7d565b611f03896040518060400160405280600b81526020016a151c985b9cd9995c9c995960aa1b815250338a8c878761209f565b8115611f47577f7fcdd728f146b0fa688b3c81bd24697ed9af564992a014479902f212cec651be89338342604051611f3e9493929190613093565b60405180910390a15b505050505050505050565b6000600482604051611f649190612e0e565b9081526040519081900360200190205460ff1692915050565b6000611f8b610e10426130ef565b6001600160a01b038316600090815260066020526040902054909150811115611fcf576001600160a01b038216600090815260056020526040902060019055612082565b6001600160a01b038216600090815260066020526040902054600a90611ff590426130ef565b10156120585760405162461bcd60e51b815260206004820152602c60248201527f416374696f6e20746f6f206672657175656e742e20506c65617365207761697460448201526b1018981039b2b1b7b732399760a11b606482015260840161082e565b6001600160a01b038216600090815260056020526040812080549161207c83613102565b91905055505b506001600160a01b03166000908152600660205260409020429055565b6003876040516120af9190612e0e565b908152604080519182900360209081018320610100840183528a84528382018a90526001600160a01b03808a16938501939093524260608501526080840188905291861660a084015284151560c084015260e08301849052815460018101835560009283529120825160079092020190819061212b9082612edc565b50602082015160018201906121409082612edc565b5060408201516002820180546001600160a01b0319166001600160a01b0390921691909117905560608201516003820155608082015160048201906121859082612edc565b5060a082015160058201805460c08501511515600160a01b026001600160a81b03199091166001600160a01b039093169290921791909117905560e082015160068201906121d39082612edc565b505050826001600160a01b0316856001600160a01b03167fa72c8d362ca7a9779bbe73902943559243961cc5ea403515fa240fa64bca1b0a8989428988886040516122239695949392919061311b565b60405180910390a350505050505050565b6001600160a01b038216600090815260066020526040812054810361225b575060006122bc565b6001600160a01b03831660009081526005602052604090205460141015612284575060016122bc565b6001600160a01b038316600090815260066020526040902054601e906122aa90426130ef565b10156122b8575060016122bc565b5060005b92915050565b6000806003836040516122d59190612e0e565b9081526040519081900360200190205411156123c85760006003836040516122fd9190612e0e565b9081526020016040518091039020600160038560405161231d9190612e0e565b9081526040519081900360200190205461233791906130ef565b8154811061234757612347613046565b906000526020600020906007020190506040518060400160405280600b81526020016a151c985b9cd9995c9c995960aa1b81525080519060200120816001016040516123939190613176565b60405180910390201480156123b85750610e108160030154426123b691906130ef565b105b156123c65750600192915050565b505b6000806123d761012c426130ef565b905060005b6003856040516123ec9190612e0e565b9081526040519081900360200190205481101561250957604080518082018252600881526757617272616e747960c01b602090910152517f44528e91af0e7388f872af8b6454a845ccdc93879e0f127ee1886628618c7d5790600390612453908890612e0e565b9081526020016040518091039020828154811061247257612472613046565b90600052602060002090600702016001016040516124909190613176565b60405180910390201480156124e45750816003866040516124b19190612e0e565b908152602001604051809103902082815481106124d0576124d0613046565b906000526020600020906007020160030154115b156124f757826124f381613102565b9350505b8061250181613102565b9150506123dc565b505060021092915050565b6000808061252562015180426130ef565b905060005b60038560405161253a9190612e0e565b908152604051908190036020019020548110156126555760408051808201825260068152652932b830b4b960d11b602090910152517f316bf33db7b81c1313d77f7e2bffc0081d8497ab08236e5a77677e986ddf9c4b9060039061259f908890612e0e565b908152602001604051809103902082815481106125be576125be613046565b90600052602060002090600702016001016040516125dc9190613176565b60405180910390201480156126305750816003866040516125fd9190612e0e565b9081526020016040518091039020828154811061261c5761261c613046565b906000526020600020906007020160030154115b15612643578261263f81613102565b9350505b8061264d81613102565b91505061252a565b5060008061266561012c426130ef565b905060005b60038760405161267a9190612e0e565b908152604051908190036020019020548110156127955760408051808201825260068152652932b830b4b960d11b602090910152517f316bf33db7b81c1313d77f7e2bffc0081d8497ab08236e5a77677e986ddf9c4b906003906126df908a90612e0e565b908152602001604051809103902082815481106126fe576126fe613046565b906000526020600020906007020160010160405161271c9190613176565b604051809103902014801561277057508160038860405161273d9190612e0e565b9081526020016040518091039020828154811061275c5761275c613046565b906000526020600020906007020160030154115b15612783578261277f81613102565b9350505b8061278d81613102565b91505061266a565b5060038411806127a55750600282115b9695505050505050565b600080806127bf610e10426130ef565b905060005b6003876040516127d49190612e0e565b908152604051908190036020019020548110156128f457604080518082018252600b81526a151c985b9cd9995c9c995960aa1b602090910152517f75b04a2c1e3fa26066bbdae19ca1d8cb7278696bf149e13ee3e13b5988c33ebb9060039061283e908a90612e0e565b9081526020016040518091039020828154811061285d5761285d613046565b906000526020600020906007020160010160405161287b9190613176565b60405180910390201480156128cf57508160038860405161289c9190612e0e565b908152602001604051809103902082815481106128bb576128bb613046565b906000526020600020906007020160030154115b156128e257826128de81613102565b9350505b806128ec81613102565b9150506127c4565b5050600a10949350505050565b634e487b7160e01b600052604160045260246000fd5b600082601f83011261292857600080fd5b813567ffffffffffffffff8082111561294357612943612901565b604051601f8301601f19908116603f0116810190828211818310171561296b5761296b612901565b8160405283815286602085880101111561298457600080fd5b836020870160208301376000602085830101528094505050505092915050565b6000602082840312156129b657600080fd5b813567ffffffffffffffff8111156129cd57600080fd5b6129d984828501612917565b949350505050565b60005b838110156129fc5781810151838201526020016129e4565b50506000910152565b60008151808452612a1d8160208601602086016129e1565b601f01601f19169290920160200192915050565b6000610100808352612a458184018c612a05565b90508281036020840152612a59818b612a05565b6001600160a01b038a16604085015288151560608501526080840188905260a0840187905285151560c085015283810360e08501529050612a9a8185612a05565b9b9a5050505050505050505050565b60008060408385031215612abc57600080fd5b823567ffffffffffffffff811115612ad357600080fd5b612adf85828601612917565b95602094909401359450505050565b6000610100808352612b028184018c612a05565b90508281036020840152612b16818b612a05565b6001600160a01b038a81166040860152606085018a90528482036080860152909150612b428289612a05565b90871660a085015285151560c085015283810360e08501529050612a9a8185612a05565b80356001600160a01b0381168114612b7d57600080fd5b919050565b600060208284031215612b9457600080fd5b612b9d82612b66565b9392505050565b60008060408385031215612bb757600080fd5b612bc083612b66565b9150602083013560058110612bd457600080fd5b809150509250929050565b60e081526000612bf260e083018a612a05565b6001600160a01b038981166020850152604084018990528382036060850152612c1b8289612a05565b908716608085015285151560a085015283810360c08501529050612c3f8185612a05565b9a9950505050505050505050565b602081526000612b9d6020830184612a05565b60c081526000612c7360c0830189612a05565b8281036020840152612c858189612a05565b6001600160a01b038816604085015260608401879052851515608085015283810360a08501529050612cb78185612a05565b9998505050505050505050565b60008060408385031215612cd757600080fd5b823567ffffffffffffffff80821115612cef57600080fd5b612cfb86838701612917565b93506020850135915080821115612d1157600080fd5b50612d1e85828601612917565b9150509250929050565b634e487b7160e01b600052602160045260246000fd5b6020810160058310612d6057634e487b7160e01b600052602160045260246000fd5b91905290565b600080600060608486031215612d7b57600080fd5b833567ffffffffffffffff80821115612d9357600080fd5b612d9f87838801612917565b9450612dad60208701612b66565b93506040860135915080821115612dc357600080fd5b50612dd086828701612917565b9150509250925092565b600181811c90821680612dee57607f821691505b60208210810361085a57634e487b7160e01b600052602260045260246000fd5b60008251612e208184602087016129e1565b9190910192915050565b602080825260169082015275141c9bd91d58dd08191bd95cc81b9bdd08195e1a5cdd60521b604082015260600190565b60208082526018908201527f596f757220726f6c65206973206e6f7420616c6c6f7765640000000000000000604082015260600190565b601f821115612ed757600081815260208120601f850160051c81016020861015612eb85750805b601f850160051c820191505b8181101561159257828155600101612ec4565b505050565b815167ffffffffffffffff811115612ef657612ef6612901565b612f0a81612f048454612dda565b84612e91565b602080601f831160018114612f3f5760008415612f275750858301515b600019600386901b1c1916600185901b178555611592565b600085815260208120601f198616915b82811015612f6e57888601518255948401946001909101908401612f4f565b5085821015612f8c5787850151600019600388901b60f8161c191681555b5050505050600190811b01905550565b60c081526000612faf60c0830186612a05565b828103806020850152601782527f537573706963696f7573537461747573436c65617265640000000000000000006020830152856040850152604081016060850152601960408301527f537573706963696f75732073746174757320636c656172656400000000000000606083015284151560808501526080810160a0850152506000608082015260a08101915050949350505050565b634e487b7160e01b600052603260045260246000fd5b6020808252601d908201527f596f7520617265206e6f74207468652070726f64756374206f776e6572000000604082015260600190565b6080815260006130a66080830187612a05565b6001600160a01b038616602084015282810360408401526130c78186612a05565b91505082606083015295945050505050565b634e487b7160e01b600052601160045260246000fd5b818103818111156122bc576122bc6130d9565b600060018201613114576131146130d9565b5060010190565b60c08152600061312e60c0830189612a05565b82810360208401526131408189612a05565b9050866040840152828103606084015261315a8187612a05565b9050841515608084015282810360a0840152612cb78185612a05565b600080835461318481612dda565b6001828116801561319c57600181146131b1576131e0565b60ff19841687528215158302870194506131e0565b8760005260208060002060005b858110156131d75781548a8201529084019082016131be565b50505082870194505b5092969550505050505056fe537573706963696f7573207472616e73666572207061747465726e206465746563746564537573706963696f757320726570616972206163746976697479206465746563746564537573706963696f75732077617272616e7479206163746976697479206465746563746564a2646970667358221220d398260f014a4787748e6babc7aba13e0c3d6f57c60cd34f3c10b29099c5b9e264736f6c63430008130033",
  "immutableReferences": {},
  "source": "// SPDX-License-Identifier: MIT\r\npragma solidity ^0.8.19;\r\n\r\ncontract ProductLifecycle {\r\n    address public owner;\r\n\r\n    enum Role { None, Manufacturer, Dealer, Customer, WarrantyCenter }\r\n    mapping(address => Role) public roles;\r\n\r\n    struct Product {\r\n        string productId;\r\n        string info;\r\n        address currentOwner;\r\n        bool exists;\r\n        uint256 createdAt;\r\n        uint256 lastModified;\r\n        bool isSuspicious;\r\n        string suspiciousReason;\r\n    }\r\n\r\n    struct ProductEventRecord {\r\n        string productId;\r\n        string action; // \"Created\", \"Transferred\", \"Warranty\", \"Repair\"\r\n        address actor;\r\n        uint256 timestamp;\r\n        string note;\r\n        address newOwner;\r\n        bool isSuspicious;\r\n        string suspiciousReason;\r\n    }\r\n\r\n    mapping(string => Product) public products;\r\n    mapping(string => ProductEventRecord[]) public productHistory;\r\n    mapping(string => bool) public duplicateProducts;\r\n    mapping(address => uint256) public userActivityCount;\r\n    mapping(address => uint256) public lastActivityTime;\r\n\r\n    // Anti-counterfeit thresholds\r\n    uint256 public constant SUSPICIOUS_TIME_THRESHOLD = 60; // 1 minute (gim t 5 pht)\r\n    uint256 public constant MAX_ACTIVITY_PER_HOUR = 100; // Tng t 50 ln 100\r\n    uint256 public constant SUSPICIOUS_TRANSFER_THRESHOLD = 10; // transfers in 1 hour\r\n\r\n    event ProductEvent(\r\n        string productId,\r\n        string action,\r\n        address indexed actor,\r\n        uint256 timestamp,\r\n        string note,\r\n        address indexed newOwner,\r\n        bool isSuspicious,\r\n        string suspiciousReason\r\n    );\r\n    event RoleGranted(address indexed user, Role role);\r\n    event SuspiciousActivityDetected(\r\n        string productId,\r\n        address actor,\r\n        string reason,\r\n        uint256 timestamp\r\n    );\r\n\r\n    modifier onlyOwner() {\r\n        require(msg.sender == owner, \"Only contract owner can do this\");\r\n        _;\r\n    }\r\n    modifier onlyRole(Role r) {\r\n        require(roles[msg.sender] == r, \"Your role is not allowed\");\r\n        _;\r\n    }\r\n    modifier onlyProductOwner(string memory _id) {\r\n        require(products[_id].currentOwner == msg.sender, \"You are not the product owner\");\r\n        _;\r\n    }\r\n    modifier productExists(string memory _id) {\r\n        require(products[_id].exists, \"Product does not exist\");\r\n        _;\r\n    }\r\n\r\n    constructor() {\r\n        owner = msg.sender;\r\n        roles[msg.sender] = Role.Manufacturer;\r\n    }\r\n\r\n    function grantRole(address user, Role role) public onlyOwner {\r\n        require(role != Role.None, \"Invalid role\");\r\n        roles[user] = role;\r\n        emit RoleGranted(user, role);\r\n    }\r\n\r\n    function removeRole(address user) public onlyRole(Role.Manufacturer) {\r\n        require(user != msg.sender, \"Cannot remove your own role\");\r\n        roles[user] = Role.None;\r\n        emit RoleGranted(user, Role.None);\r\n    }\r\n\r\n    function createProduct(string memory _id, string memory _info) public onlyRole(Role.Manufacturer) {\r\n        require(!products[_id].exists, \"Product already exists\");\r\n        require(bytes(_id).length > 0, \"Product ID cannot be empty\");\r\n        require(bytes(_info).length > 0, \"Product info cannot be empty\");\r\n        \r\n        // Check for duplicate patterns\r\n        bool isDuplicate = _checkDuplicatePattern(_id);\r\n        \r\n        // Update user activity\r\n        _updateUserActivity(msg.sender);\r\n        \r\n        // DISABLE suspicious check for product creation (for demo purposes)\r\n        bool isSuspicious = false; // Always false for creation\r\n        string memory suspiciousReason = \"\";\r\n        \r\n        products[_id] = Product(\r\n            _id, \r\n            _info, \r\n            msg.sender, \r\n            true, \r\n            block.timestamp, \r\n            block.timestamp,\r\n            isSuspicious,\r\n            suspiciousReason\r\n        );\r\n        \r\n        _addHistory(_id, \"Created\", msg.sender, \"Created\", msg.sender, isSuspicious, suspiciousReason);\r\n    }\r\n\r\n    function transferProduct(string memory _id, address _to, string memory _note) public productExists(_id) onlyProductOwner(_id) {\r\n        require(_to != address(0), \"Invalid address\");\r\n        require(_to != msg.sender, \"Cannot transfer to yourself\");\r\n        \r\n        Role senderRole = roles[msg.sender];\r\n        Role receiverRole = roles[_to];\r\n        \r\n        // Business logic validation\r\n        if (senderRole == Role.Manufacturer) {\r\n            require(\r\n                receiverRole == Role.Dealer || receiverRole == Role.Customer,\r\n                \"Manufacturer can only transfer to Dealer or Customer\"\r\n            );\r\n        } else if (senderRole == Role.Dealer) {\r\n            require(\r\n                receiverRole == Role.Dealer || receiverRole == Role.Customer,\r\n                \"Dealer can only transfer to Dealer or Customer\"\r\n            );\r\n        } else if (senderRole == Role.Customer) {\r\n            require(\r\n                receiverRole == Role.WarrantyCenter,\r\n                \"Customer can only transfer to Warranty Center for warranty\"\r\n            );\r\n        } else {\r\n            revert(\"This role cannot transfer product\");\r\n        }\r\n        \r\n        // Anti-counterfeit checks\r\n        bool isSuspicious = _checkSuspiciousTransfer(_id, msg.sender, _to);\r\n        string memory suspiciousReason = \"\";\r\n        \r\n        if (isSuspicious) {\r\n            suspiciousReason = \"Suspicious transfer pattern detected\";\r\n            products[_id].isSuspicious = true;\r\n            products[_id].suspiciousReason = suspiciousReason;\r\n        }\r\n        \r\n        // Update product\r\n        products[_id].currentOwner = _to;\r\n        products[_id].lastModified = block.timestamp;\r\n        \r\n        // Update user activity\r\n        _updateUserActivity(msg.sender);\r\n        _updateUserActivity(_to);\r\n        \r\n        _addHistory(_id, \"Transferred\", msg.sender, _note, _to, isSuspicious, suspiciousReason);\r\n        \r\n        if (isSuspicious) {\r\n            emit SuspiciousActivityDetected(_id, msg.sender, suspiciousReason, block.timestamp);\r\n        }\r\n    }\r\n\r\n    function warrantyProduct(string memory _id, string memory _note) public productExists(_id) onlyProductOwner(_id) onlyRole(Role.WarrantyCenter) {\r\n        // Check for suspicious activity (rate limiting)\r\n        bool isSuspicious = _checkSuspiciousActivity(msg.sender, \"warranty\") || _checkSuspiciousWarranty(_id);\r\n        string memory suspiciousReason = \"\";\r\n        \r\n        if (isSuspicious) {\r\n            suspiciousReason = \"Suspicious warranty activity detected\";\r\n            products[_id].isSuspicious = true;\r\n            products[_id].suspiciousReason = suspiciousReason;\r\n        }\r\n        \r\n        _updateUserActivity(msg.sender);\r\n        _addHistory(_id, \"Warranty\", msg.sender, _note, products[_id].currentOwner, isSuspicious, suspiciousReason);\r\n        \r\n        if (isSuspicious) {\r\n            emit SuspiciousActivityDetected(_id, msg.sender, suspiciousReason, block.timestamp);\r\n        }\r\n    }\r\n\r\n    function repairProduct(string memory _id, string memory _note) public productExists(_id) onlyProductOwner(_id) onlyRole(Role.WarrantyCenter) {\r\n        // Check for suspicious activity (rate limiting)\r\n        bool isSuspicious = _checkSuspiciousActivity(msg.sender, \"repair\") || _checkSuspiciousRepair(_id);\r\n        string memory suspiciousReason = \"\";\r\n        \r\n        if (isSuspicious) {\r\n            suspiciousReason = \"Suspicious repair activity detected\";\r\n            products[_id].isSuspicious = true;\r\n            products[_id].suspiciousReason = suspiciousReason;\r\n        }\r\n        \r\n        _updateUserActivity(msg.sender);\r\n        _addHistory(_id, \"Repair\", msg.sender, _note, products[_id].currentOwner, isSuspicious, suspiciousReason);\r\n        \r\n        if (isSuspicious) {\r\n            emit SuspiciousActivityDetected(_id, msg.sender, suspiciousReason, block.timestamp);\r\n        }\r\n    }\r\n\r\n    // Anti-counterfeit detection functions\r\n    function _checkDuplicatePattern(string memory _id) internal view returns (bool) {\r\n        // Check if similar product IDs exist (basic pattern matching)\r\n        return duplicateProducts[_id];\r\n    }\r\n\r\n    function _checkSuspiciousActivity(address _user, string memory _action) internal view returns (bool) {\r\n        // Skip check for first activity (new user)\r\n        if (lastActivityTime[_user] == 0) {\r\n            return false;\r\n        }\r\n        \r\n        // Check if user has too much activity in short time (more strict)\r\n        if (userActivityCount[_user] > 20) { // Gim t 100 xung 20\r\n            return true;\r\n        }\r\n        \r\n        // Check if actions are too frequent (more strict)\r\n        if (block.timestamp - lastActivityTime[_user] < 30) { // Gim t 60 xung 30 giy\r\n            return true;\r\n        }\r\n        \r\n        return false;\r\n    }\r\n\r\n    function _checkSuspiciousTransfer(string memory _id, address _from, address _to) internal view returns (bool) {\r\n        // Check if product was transferred too many times recently\r\n        uint256 transferCount = 0;\r\n        uint256 oneHourAgo = block.timestamp - 3600;\r\n        \r\n        for (uint256 i = 0; i < productHistory[_id].length; i++) {\r\n            if (keccak256(bytes(productHistory[_id][i].action)) == keccak256(bytes(\"Transferred\")) && \r\n                productHistory[_id][i].timestamp > oneHourAgo) {\r\n                transferCount++;\r\n            }\r\n        }\r\n        \r\n        return transferCount > SUSPICIOUS_TRANSFER_THRESHOLD;\r\n    }\r\n\r\n    function _checkSuspiciousWarranty(string memory _id) internal view returns (bool) {\r\n        // Check if warranty was requested too soon after transfer\r\n        if (productHistory[_id].length > 0) {\r\n            ProductEventRecord storage lastRecord = productHistory[_id][productHistory[_id].length - 1];\r\n            if (keccak256(bytes(lastRecord.action)) == keccak256(bytes(\"Transferred\")) && \r\n                block.timestamp - lastRecord.timestamp < 3600) { // Less than 1 hour\r\n                return true;\r\n            }\r\n        }\r\n        \r\n        // Check for warranty spam (more than 2 warranties in 5 minutes)\r\n        uint256 warrantyCount = 0;\r\n        uint256 fiveMinutesAgo = block.timestamp - 300;\r\n        \r\n        for (uint256 i = 0; i < productHistory[_id].length; i++) {\r\n            if (keccak256(bytes(productHistory[_id][i].action)) == keccak256(bytes(\"Warranty\")) && \r\n                productHistory[_id][i].timestamp > fiveMinutesAgo) {\r\n                warrantyCount++;\r\n            }\r\n        }\r\n        \r\n        return warrantyCount > 2; // More than 2 warranties in 5 minutes\r\n    }\r\n\r\n    function _checkSuspiciousRepair(string memory _id) internal view returns (bool) {\r\n        // Check for unusual repair patterns\r\n        uint256 repairCount = 0;\r\n        uint256 oneDayAgo = block.timestamp - 86400;\r\n        \r\n        for (uint256 i = 0; i < productHistory[_id].length; i++) {\r\n            if (keccak256(bytes(productHistory[_id][i].action)) == keccak256(bytes(\"Repair\")) && \r\n                productHistory[_id][i].timestamp > oneDayAgo) {\r\n                repairCount++;\r\n            }\r\n        }\r\n        \r\n        // Check for repair spam (more than 2 repairs in 5 minutes)\r\n        uint256 recentRepairCount = 0;\r\n        uint256 fiveMinutesAgo = block.timestamp - 300;\r\n        \r\n        for (uint256 i = 0; i < productHistory[_id].length; i++) {\r\n            if (keccak256(bytes(productHistory[_id][i].action)) == keccak256(bytes(\"Repair\")) && \r\n                productHistory[_id][i].timestamp > fiveMinutesAgo) {\r\n                recentRepairCount++;\r\n            }\r\n        }\r\n        \r\n        return repairCount > 3 || recentRepairCount > 2; // More than 3 repairs in 1 day OR more than 2 repairs in 5 minutes\r\n    }\r\n\r\n    function _updateUserActivity(address _user) internal {\r\n        uint256 oneHourAgo = block.timestamp - 3600;\r\n        \r\n        // Reset count if it's been more than 1 hour\r\n        if (lastActivityTime[_user] < oneHourAgo) {\r\n            userActivityCount[_user] = 1;\r\n        } else {\r\n            // Rate limiting: minimum 10 seconds between actions\r\n            require(block.timestamp - lastActivityTime[_user] >= 10, \"Action too frequent. Please wait 10 seconds.\");\r\n            userActivityCount[_user]++;\r\n        }\r\n        \r\n        lastActivityTime[_user] = block.timestamp;\r\n    }\r\n\r\n    function _addHistory(string memory _id, string memory _action, address _actor, string memory _note, address _newOwner, bool _isSuspicious, string memory _suspiciousReason) internal {\r\n        productHistory[_id].push(ProductEventRecord(\r\n            _id,\r\n            _action,\r\n            _actor,\r\n            block.timestamp,\r\n            _note,\r\n            _newOwner,\r\n            _isSuspicious,\r\n            _suspiciousReason\r\n        ));\r\n        emit ProductEvent(_id, _action, _actor, block.timestamp, _note, _newOwner, _isSuspicious, _suspiciousReason);\r\n    }\r\n\r\n    // View functions\r\n    function getProduct(string memory _id) public view productExists(_id) returns (\r\n        string memory, string memory, address, uint256 historyCount, bool isSuspicious, string memory suspiciousReason\r\n    ) {\r\n        Product storage p = products[_id];\r\n        return (p.productId, p.info, p.currentOwner, productHistory[_id].length, p.isSuspicious, p.suspiciousReason);\r\n    }\r\n\r\n    function getProductHistoryLength(string memory _id) public view productExists(_id) returns (uint256) {\r\n        return productHistory[_id].length;\r\n    }\r\n\r\n    function getProductHistoryRecord(string memory _id, uint256 idx) public view productExists(_id) returns (\r\n        string memory, address, uint256, string memory, address, bool, string memory\r\n    ) {\r\n        require(idx < productHistory[_id].length, \"Index out of bounds\");\r\n        ProductEventRecord storage rec = productHistory[_id][idx];\r\n        return (rec.action, rec.actor, rec.timestamp, rec.note, rec.newOwner, rec.isSuspicious, rec.suspiciousReason);\r\n    }\r\n\r\n    function isProductSuspicious(string memory _id) public view productExists(_id) returns (bool) {\r\n        return products[_id].isSuspicious;\r\n    }\r\n\r\n    function getSuspiciousReason(string memory _id) public view productExists(_id) returns (string memory) {\r\n        return products[_id].suspiciousReason;\r\n    }\r\n\r\n    // Function to clear suspicious status (for demo purposes)\r\n    function clearSuspiciousStatus(string memory _id) public onlyRole(Role.Manufacturer) productExists(_id) {\r\n        products[_id].isSuspicious = false;\r\n        products[_id].suspiciousReason = \"\";\r\n        emit ProductEvent(_id, \"SuspiciousStatusCleared\", msg.sender, block.timestamp, \"Suspicious status cleared\", products[_id].currentOwner, false, \"\");\r\n    }\r\n} ",
  "sourcePath": "E:\\blockchain-dntu\\tx3\\lv1\\blockchain_lv2\\contracts\\ProductLifecycle.sol",
  "compiler": {
    "name": "solc",
    "version": "0.8.19+commit.7dd6d404.Emscripten.clang"
  },
  "schemaVersion": "3.4.16",
  "updatedAt": "2025-07-19T08:47:22.523Z",
  "networkType": "ethereum",
  "devdoc": {
    "kind": "dev",
    "methods": {},
    "version": 1
  },
  "userdoc": {
    "kind": "user",
    "methods": {},
    "version": 1
  }
}