{
  "contractName": "ProductLifecycle",
  "abi": [
    {
      "inputs": [],
      "stateMutability": "nonpayable",
      "type": "constructor"
    },
    {
      "anonymous": false,
      "inputs": [
        {
          "indexed": false,
          "internalType": "string",
          "name": "productId",
          "type": "string"
        },
        {
          "indexed": false,
          "internalType": "string",
          "name": "action",
          "type": "string"
        },
        {
          "indexed": true,
          "internalType": "address",
          "name": "actor",
          "type": "address"
        },
        {
          "indexed": false,
          "internalType": "uint256",
          "name": "timestamp",
          "type": "uint256"
        },
        {
          "indexed": false,
          "internalType": "string",
          "name": "note",
          "type": "string"
        },
        {
          "indexed": true,
          "internalType": "address",
          "name": "newOwner",
          "type": "address"
        }
      ],
      "name": "ProductEvent",
      "type": "event"
    },
    {
      "anonymous": false,
      "inputs": [
        {
          "indexed": true,
          "internalType": "address",
          "name": "user",
          "type": "address"
        },
        {
          "indexed": false,
          "internalType": "enum ProductLifecycle.Role",
          "name": "role",
          "type": "uint8"
        }
      ],
      "name": "RoleGranted",
      "type": "event"
    },
    {
      "inputs": [],
      "name": "owner",
      "outputs": [
        {
          "internalType": "address",
          "name": "",
          "type": "address"
        }
      ],
      "stateMutability": "view",
      "type": "function",
      "constant": true
    },
    {
      "inputs": [
        {
          "internalType": "string",
          "name": "",
          "type": "string"
        },
        {
          "internalType": "uint256",
          "name": "",
          "type": "uint256"
        }
      ],
      "name": "productHistory",
      "outputs": [
        {
          "internalType": "string",
          "name": "productId",
          "type": "string"
        },
        {
          "internalType": "string",
          "name": "action",
          "type": "string"
        },
        {
          "internalType": "address",
          "name": "actor",
          "type": "address"
        },
        {
          "internalType": "uint256",
          "name": "timestamp",
          "type": "uint256"
        },
        {
          "internalType": "string",
          "name": "note",
          "type": "string"
        },
        {
          "internalType": "address",
          "name": "newOwner",
          "type": "address"
        }
      ],
      "stateMutability": "view",
      "type": "function",
      "constant": true
    },
    {
      "inputs": [
        {
          "internalType": "string",
          "name": "",
          "type": "string"
        }
      ],
      "name": "products",
      "outputs": [
        {
          "internalType": "string",
          "name": "productId",
          "type": "string"
        },
        {
          "internalType": "string",
          "name": "info",
          "type": "string"
        },
        {
          "internalType": "address",
          "name": "currentOwner",
          "type": "address"
        },
        {
          "internalType": "bool",
          "name": "exists",
          "type": "bool"
        }
      ],
      "stateMutability": "view",
      "type": "function",
      "constant": true
    },
    {
      "inputs": [
        {
          "internalType": "address",
          "name": "",
          "type": "address"
        }
      ],
      "name": "roles",
      "outputs": [
        {
          "internalType": "enum ProductLifecycle.Role",
          "name": "",
          "type": "uint8"
        }
      ],
      "stateMutability": "view",
      "type": "function",
      "constant": true
    },
    {
      "inputs": [
        {
          "internalType": "address",
          "name": "user",
          "type": "address"
        },
        {
          "internalType": "enum ProductLifecycle.Role",
          "name": "role",
          "type": "uint8"
        }
      ],
      "name": "grantRole",
      "outputs": [],
      "stateMutability": "nonpayable",
      "type": "function"
    },
    {
      "inputs": [
        {
          "internalType": "address",
          "name": "user",
          "type": "address"
        }
      ],
      "name": "removeRole",
      "outputs": [],
      "stateMutability": "nonpayable",
      "type": "function"
    },
    {
      "inputs": [
        {
          "internalType": "string",
          "name": "_id",
          "type": "string"
        },
        {
          "internalType": "string",
          "name": "_info",
          "type": "string"
        }
      ],
      "name": "createProduct",
      "outputs": [],
      "stateMutability": "nonpayable",
      "type": "function"
    },
    {
      "inputs": [
        {
          "internalType": "string",
          "name": "_id",
          "type": "string"
        },
        {
          "internalType": "address",
          "name": "_to",
          "type": "address"
        },
        {
          "internalType": "string",
          "name": "_note",
          "type": "string"
        }
      ],
      "name": "transferProduct",
      "outputs": [],
      "stateMutability": "nonpayable",
      "type": "function"
    },
    {
      "inputs": [
        {
          "internalType": "string",
          "name": "_id",
          "type": "string"
        },
        {
          "internalType": "string",
          "name": "_note",
          "type": "string"
        }
      ],
      "name": "warrantyProduct",
      "outputs": [],
      "stateMutability": "nonpayable",
      "type": "function"
    },
    {
      "inputs": [
        {
          "internalType": "string",
          "name": "_id",
          "type": "string"
        },
        {
          "internalType": "string",
          "name": "_note",
          "type": "string"
        }
      ],
      "name": "repairProduct",
      "outputs": [],
      "stateMutability": "nonpayable",
      "type": "function"
    },
    {
      "inputs": [
        {
          "internalType": "string",
          "name": "_id",
          "type": "string"
        }
      ],
      "name": "getProduct",
      "outputs": [
        {
          "internalType": "string",
          "name": "",
          "type": "string"
        },
        {
          "internalType": "string",
          "name": "",
          "type": "string"
        },
        {
          "internalType": "address",
          "name": "",
          "type": "address"
        },
        {
          "internalType": "uint256",
          "name": "historyCount",
          "type": "uint256"
        }
      ],
      "stateMutability": "view",
      "type": "function",
      "constant": true
    },
    {
      "inputs": [
        {
          "internalType": "string",
          "name": "_id",
          "type": "string"
        }
      ],
      "name": "getProductHistoryLength",
      "outputs": [
        {
          "internalType": "uint256",
          "name": "",
          "type": "uint256"
        }
      ],
      "stateMutability": "view",
      "type": "function",
      "constant": true
    },
    {
      "inputs": [
        {
          "internalType": "string",
          "name": "_id",
          "type": "string"
        },
        {
          "internalType": "uint256",
          "name": "idx",
          "type": "uint256"
        }
      ],
      "name": "getProductHistoryRecord",
      "outputs": [
        {
          "internalType": "string",
          "name": "",
          "type": "string"
        },
        {
          "internalType": "address",
          "name": "",
          "type": "address"
        },
        {
          "internalType": "uint256",
          "name": "",
          "type": "uint256"
        },
        {
          "internalType": "string",
          "name": "",
          "type": "string"
        },
        {
          "internalType": "address",
          "name": "",
          "type": "address"
        }
      ],
      "stateMutability": "view",
      "type": "function",
      "constant": true
    }
  ],
  "bytecode": "0x608060405234801561001057600080fd5b5060008054336001600160a01b0319909116811782558152600160208190526040909120805460ff19169091179055611c798061004e6000396000f3fe608060405234801561001057600080fd5b50600436106100cf5760003560e01c806368111cce1161008c578063993746421161006657806399374642146101f35780639ceed46e14610223578063e97b436814610236578063eb2755dc1461024957600080fd5b806368111cce1461019257806387592bce146101b55780638da5cb5b146101c857600080fd5b80630186a423146100d457806301970b111461010057806306433b29146101255780633e840236146101465780634762155d1461015b5780634acf9e6d1461016e575b600080fd5b6100e76100e2366004611643565b61025c565b6040516100f794939291906116d0565b60405180910390f35b61011361010e366004611717565b6103af565b6040516100f79695949392919061175c565b610138610133366004611643565b6105c6565b6040519081526020016100f7565b6101596101543660046117e0565b610645565b005b61015961016936600461181b565b610771565b61018161017c366004611717565b61085a565b6040516100f795949392919061183d565b6101a56101a0366004611643565b610aac565b6040516100f7949392919061188f565b6101596101c33660046118d1565b610c7f565b6000546101db906001600160a01b031681565b6040516001600160a01b0390911681526020016100f7565b61021661020136600461181b565b60016020526000908152604090205460ff1681565b6040516100f7919061194b565b6101596102313660046118d1565b610e18565b6101596102443660046118d1565b610f5a565b610159610257366004611973565b611072565b8051602081830181018051600282529282019190930120915280548190610282906119e7565b80601f01602080910402602001604051908101604052809291908181526020018280546102ae906119e7565b80156102fb5780601f106102d0576101008083540402835291602001916102fb565b820191906000526020600020905b8154815290600101906020018083116102de57829003601f168201915b505050505090806001018054610310906119e7565b80601f016020809104026020016040519081016040528092919081815260200182805461033c906119e7565b80156103895780601f1061035e57610100808354040283529160200191610389565b820191906000526020600020905b81548152906001019060200180831161036c57829003601f168201915b505050600290930154919250506001600160a01b0381169060ff600160a01b9091041684565b815160208184018101805160038252928201918501919091209190528054829081106103da57600080fd5b9060005260206000209060060201600091509150508060000180546103fe906119e7565b80601f016020809104026020016040519081016040528092919081815260200182805461042a906119e7565b80156104775780601f1061044c57610100808354040283529160200191610477565b820191906000526020600020905b81548152906001019060200180831161045a57829003601f168201915b50505050509080600101805461048c906119e7565b80601f01602080910402602001604051908101604052809291908181526020018280546104b8906119e7565b80156105055780601f106104da57610100808354040283529160200191610505565b820191906000526020600020905b8154815290600101906020018083116104e857829003601f168201915b505050506002830154600384015460048501805494956001600160a01b039093169491935090610534906119e7565b80601f0160208091040260200160405190810160405280929190818152602001828054610560906119e7565b80156105ad5780601f10610582576101008083540402835291602001916105ad565b820191906000526020600020905b81548152906001019060200180831161059057829003601f168201915b505050600590930154919250506001600160a01b031686565b6000816002816040516105d99190611a1b565b9081526040519081900360200190206002015460ff600160a01b9091041661061c5760405162461bcd60e51b815260040161061390611a37565b60405180910390fd5b60038360405161062c9190611a1b565b9081526040519081900360200190205491505b50919050565b6000546001600160a01b0316331461069f5760405162461bcd60e51b815260206004820152601f60248201527f4f6e6c7920636f6e7472616374206f776e65722063616e20646f2074686973006044820152606401610613565b60008160048111156106b3576106b3611935565b036106ef5760405162461bcd60e51b815260206004820152600c60248201526b496e76616c696420726f6c6560a01b6044820152606401610613565b6001600160a01b03821660009081526001602081905260409091208054839260ff199091169083600481111561072757610727611935565b0217905550816001600160a01b03167faa259565575c834bc07e74dca784b4071676133ac78513b431afb6ee7edae12182604051610765919061194b565b60405180910390a25050565b6001803360009081526001602052604090205460ff16600481111561079857610798611935565b146107b55760405162461bcd60e51b815260040161061390611a67565b336001600160a01b0383160361080d5760405162461bcd60e51b815260206004820152601b60248201527f43616e6e6f742072656d6f766520796f7572206f776e20726f6c6500000000006044820152606401610613565b6001600160a01b038216600081815260016020526040808220805460ff19169055517faa259565575c834bc07e74dca784b4071676133ac78513b431afb6ee7edae121916107659161194b565b606060008060606000866002816040516108749190611a1b565b9081526040519081900360200190206002015460ff600160a01b909104166108ae5760405162461bcd60e51b815260040161061390611a37565b6003886040516108be9190611a1b565b9081526040519081900360200190205487106109125760405162461bcd60e51b8152602060048201526013602482015272496e646578206f7574206f6620626f756e647360681b6044820152606401610613565b60006003896040516109249190611a1b565b9081526020016040518091039020888154811061094357610943611a9e565b60009182526020909120600690910201600281015460038201546005830154600184018054949550936001600160a01b039384169360048701921690859061098a906119e7565b80601f01602080910402602001604051908101604052809291908181526020018280546109b6906119e7565b8015610a035780601f106109d857610100808354040283529160200191610a03565b820191906000526020600020905b8154815290600101906020018083116109e657829003601f168201915b50505050509450818054610a16906119e7565b80601f0160208091040260200160405190810160405280929190818152602001828054610a42906119e7565b8015610a8f5780601f10610a6457610100808354040283529160200191610a8f565b820191906000526020600020905b815481529060010190602001808311610a7257829003601f168201915b505050505091509650965096509650965050509295509295909350565b60608060008084600281604051610ac39190611a1b565b9081526040519081900360200190206002015460ff600160a01b90910416610afd5760405162461bcd60e51b815260040161061390611a37565b6000600287604051610b0f9190611a1b565b9081526040519081900360200181206002810154909250829160018301916001600160a01b031690600390610b45908c90611a1b565b9081526040519081900360200190205483548490610b62906119e7565b80601f0160208091040260200160405190810160405280929190818152602001828054610b8e906119e7565b8015610bdb5780601f10610bb057610100808354040283529160200191610bdb565b820191906000526020600020905b815481529060010190602001808311610bbe57829003601f168201915b50505050509350828054610bee906119e7565b80601f0160208091040260200160405190810160405280929190818152602001828054610c1a906119e7565b8015610c675780601f10610c3c57610100808354040283529160200191610c67565b820191906000526020600020905b815481529060010190602001808311610c4a57829003601f168201915b50505050509250955095509550955050509193509193565b6001803360009081526001602052604090205460ff166004811115610ca657610ca6611935565b14610cc35760405162461bcd60e51b815260040161061390611a67565b600283604051610cd39190611a1b565b9081526040519081900360200190206002015460ff600160a01b9091041615610d375760405162461bcd60e51b815260206004820152601660248201527550726f6475637420616c72656164792065786973747360501b6044820152606401610613565b60408051608081018252848152602081018490523381830152600160608201529051600290610d67908690611a1b565b90815260405190819003602001902081518190610d849082611b02565b5060208201516001820190610d999082611b02565b50604082810151600290920180546060909401511515600160a01b026001600160a81b03199094166001600160a01b03909316929092179290921790558051808201825260078082526610dc99585d195960ca1b6020808401829052845180860190955291845290830152610e1391859190339081611457565b505050565b81600281604051610e299190611a1b565b9081526040519081900360200190206002015460ff600160a01b90910416610e635760405162461bcd60e51b815260040161061390611a37565b82336001600160a01b0316600282604051610e7e9190611a1b565b908152604051908190036020019020600201546001600160a01b031614610eb75760405162461bcd60e51b815260040161061390611bc2565b6004803360009081526001602052604090205460ff166004811115610ede57610ede611935565b14610efb5760405162461bcd60e51b815260040161061390611a67565b610f53856040518060400160405280600881526020016757617272616e747960c01b815250338760028a604051610f329190611a1b565b908152604051908190036020019020600201546001600160a01b0316611457565b5050505050565b81600281604051610f6b9190611a1b565b9081526040519081900360200190206002015460ff600160a01b90910416610fa55760405162461bcd60e51b815260040161061390611a37565b82336001600160a01b0316600282604051610fc09190611a1b565b908152604051908190036020019020600201546001600160a01b031614610ff95760405162461bcd60e51b815260040161061390611bc2565b6004803360009081526001602052604090205460ff16600481111561102057611020611935565b1461103d5760405162461bcd60e51b815260040161061390611a67565b610f5385604051806040016040528060068152602001652932b830b4b960d11b815250338760028a604051610f329190611a1b565b826002816040516110839190611a1b565b9081526040519081900360200190206002015460ff600160a01b909104166110bd5760405162461bcd60e51b815260040161061390611a37565b83336001600160a01b03166002826040516110d89190611a1b565b908152604051908190036020019020600201546001600160a01b0316146111115760405162461bcd60e51b815260040161061390611bc2565b336000908152600160208190526040808320546001600160a01b038816845292205460ff92831692169082600481111561114d5761114d611935565b036111f157600281600481111561116657611166611935565b14806111835750600381600481111561118157611181611935565b145b6111ec5760405162461bcd60e51b815260206004820152603460248201527f4d616e7566616374757265722063616e206f6e6c79207472616e73666572207460448201527337902232b0b632b91037b91021bab9ba37b6b2b960611b6064820152608401610613565b611390565b600282600481111561120557611205611935565b0361129e57600281600481111561121e5761121e611935565b148061123b5750600381600481111561123957611239611935565b145b6111ec5760405162461bcd60e51b815260206004820152602e60248201527f4465616c65722063616e206f6e6c79207472616e7366657220746f204465616c60448201526d32b91037b91021bab9ba37b6b2b960911b6064820152608401610613565b60038260048111156112b2576112b2611935565b0361133e5760048160048111156112cb576112cb611935565b146111ec5760405162461bcd60e51b815260206004820152603a60248201527f437573746f6d65722063616e206f6e6c79207472616e7366657220746f20576160448201527f7272616e74792043656e74657220666f722077617272616e74790000000000006064820152608401610613565b60405162461bcd60e51b815260206004820152602160248201527f5468697320726f6c652063616e6e6f74207472616e736665722070726f6475636044820152601d60fa1b6064820152608401610613565b6001600160a01b0386166113d85760405162461bcd60e51b815260206004820152600f60248201526e496e76616c6964206164647265737360881b6044820152606401610613565b856002886040516113e99190611a1b565b908152602001604051809103902060020160006101000a8154816001600160a01b0302191690836001600160a01b0316021790555061144e876040518060400160405280600b81526020016a151c985b9cd9995c9c995960aa1b81525033888a611457565b50505050505050565b6003856040516114679190611a1b565b90815260408051918290036020908101832060c0840183528884528382018890526001600160a01b03808816938501939093524260608501526080840186905291841660a084015281546001810183556000928352912082516006909202019081906114d39082611b02565b50602082015160018201906114e89082611b02565b5060408201516002820180546001600160a01b0319166001600160a01b03909216919091179055606082015160038201556080820151600482019061152d9082611b02565b5060a09190910151600590910180546001600160a01b0319166001600160a01b03928316179055604051828216918516907feea0d80cf931d88731e434c522ff25832203371e0cadcf87ae019a782688995d90611591908990899042908990611bf9565b60405180910390a35050505050565b634e487b7160e01b600052604160045260246000fd5b600082601f8301126115c757600080fd5b813567ffffffffffffffff808211156115e2576115e26115a0565b604051601f8301601f19908116603f0116810190828211818310171561160a5761160a6115a0565b8160405283815286602085880101111561162357600080fd5b836020870160208301376000602085830101528094505050505092915050565b60006020828403121561165557600080fd5b813567ffffffffffffffff81111561166c57600080fd5b611678848285016115b6565b949350505050565b60005b8381101561169b578181015183820152602001611683565b50506000910152565b600081518084526116bc816020860160208601611680565b601f01601f19169290920160200192915050565b6080815260006116e360808301876116a4565b82810360208401526116f581876116a4565b6001600160a01b03959095166040840152505090151560609091015292915050565b6000806040838503121561172a57600080fd5b823567ffffffffffffffff81111561174157600080fd5b61174d858286016115b6565b95602094909401359450505050565b60c08152600061176f60c08301896116a4565b828103602084015261178181896116a4565b6001600160a01b0388811660408601526060850188905284820360808601529091506117ad82876116a4565b925080851660a08501525050979650505050505050565b80356001600160a01b03811681146117db57600080fd5b919050565b600080604083850312156117f357600080fd5b6117fc836117c4565b915060208301356005811061181057600080fd5b809150509250929050565b60006020828403121561182d57600080fd5b611836826117c4565b9392505050565b60a08152600061185060a08301886116a4565b6001600160a01b03878116602085015260408401879052838203606085015261187982876116a4565b9250808516608085015250509695505050505050565b6080815260006118a260808301876116a4565b82810360208401526118b481876116a4565b6001600160a01b0395909516604084015250506060015292915050565b600080604083850312156118e457600080fd5b823567ffffffffffffffff808211156118fc57600080fd5b611908868387016115b6565b9350602085013591508082111561191e57600080fd5b5061192b858286016115b6565b9150509250929050565b634e487b7160e01b600052602160045260246000fd5b602081016005831061196d57634e487b7160e01b600052602160045260246000fd5b91905290565b60008060006060848603121561198857600080fd5b833567ffffffffffffffff808211156119a057600080fd5b6119ac878388016115b6565b94506119ba602087016117c4565b935060408601359150808211156119d057600080fd5b506119dd868287016115b6565b9150509250925092565b600181811c908216806119fb57607f821691505b60208210810361063f57634e487b7160e01b600052602260045260246000fd5b60008251611a2d818460208701611680565b9190910192915050565b602080825260169082015275141c9bd91d58dd08191bd95cc81b9bdd08195e1a5cdd60521b604082015260600190565b60208082526018908201527f596f757220726f6c65206973206e6f7420616c6c6f7765640000000000000000604082015260600190565b634e487b7160e01b600052603260045260246000fd5b601f821115610e1357600081815260208120601f850160051c81016020861015611adb5750805b601f850160051c820191505b81811015611afa57828155600101611ae7565b505050505050565b815167ffffffffffffffff811115611b1c57611b1c6115a0565b611b3081611b2a84546119e7565b84611ab4565b602080601f831160018114611b655760008415611b4d5750858301515b600019600386901b1c1916600185901b178555611afa565b600085815260208120601f198616915b82811015611b9457888601518255948401946001909101908401611b75565b5085821015611bb25787850151600019600388901b60f8161c191681555b5050505050600190811b01905550565b6020808252601d908201527f596f7520617265206e6f74207468652070726f64756374206f776e6572000000604082015260600190565b608081526000611c0c60808301876116a4565b8281036020840152611c1e81876116a4565b90508460408401528281036060840152611c3881856116a4565b97965050505050505056fea264697066735822122061737391c6166255d5396f5914648028a22a7184dcf3c491f9bf0d37986bf3d464736f6c63430008130033",
  "immutableReferences": {},
  "source": "// SPDX-License-Identifier: MIT\r\npragma solidity ^0.8.19;\r\n\r\ncontract ProductLifecycle {\r\n    address public owner;\r\n\r\n    enum Role { None, Manufacturer, Dealer, Customer, WarrantyCenter }\r\n    mapping(address => Role) public roles;\r\n\r\n    struct Product {\r\n        string productId;\r\n        string info;\r\n        address currentOwner;\r\n        bool exists;\r\n    }\r\n\r\n    struct ProductEventRecord {\r\n        string productId;\r\n        string action; // \"Created\", \"Transferred\", \"Warranty\", \"Repair\"\r\n        address actor;\r\n        uint256 timestamp;\r\n        string note;\r\n        address newOwner;\r\n    }\r\n\r\n    mapping(string => Product) public products;\r\n    mapping(string => ProductEventRecord[]) public productHistory;\r\n\r\n    event ProductEvent(\r\n        string productId,\r\n        string action,\r\n        address indexed actor,\r\n        uint256 timestamp,\r\n        string note,\r\n        address indexed newOwner\r\n    );\r\n    event RoleGranted(address indexed user, Role role);\r\n\r\n    modifier onlyOwner() {\r\n        require(msg.sender == owner, \"Only contract owner can do this\");\r\n        _;\r\n    }\r\n    modifier onlyRole(Role r) {\r\n        require(roles[msg.sender] == r, \"Your role is not allowed\");\r\n        _;\r\n    }\r\n    modifier onlyProductOwner(string memory _id) {\r\n        require(products[_id].currentOwner == msg.sender, \"You are not the product owner\");\r\n        _;\r\n    }\r\n    modifier productExists(string memory _id) {\r\n        require(products[_id].exists, \"Product does not exist\");\r\n        _;\r\n    }\r\n\r\n    constructor() {\r\n        owner = msg.sender;\r\n        roles[msg.sender] = Role.Manufacturer;\r\n    }\r\n\r\n    function grantRole(address user, Role role) public onlyOwner {\r\n        require(role != Role.None, \"Invalid role\");\r\n        roles[user] = role;\r\n        emit RoleGranted(user, role);\r\n    }\r\n\r\n    function removeRole(address user) public onlyRole(Role.Manufacturer) {\r\n        require(user != msg.sender, \"Cannot remove your own role\");\r\n        roles[user] = Role.None;\r\n        emit RoleGranted(user, Role.None);\r\n    }\r\n\r\n    function createProduct(string memory _id, string memory _info) public onlyRole(Role.Manufacturer) {\r\n        require(!products[_id].exists, \"Product already exists\");\r\n        products[_id] = Product(_id, _info, msg.sender, true);\r\n        _addHistory(_id, \"Created\", msg.sender, \"Created\", msg.sender);\r\n    }\r\n\r\n    function transferProduct(string memory _id, address _to, string memory _note) public productExists(_id) onlyProductOwner(_id) {\r\n        Role senderRole = roles[msg.sender];\r\n        Role receiverRole = roles[_to];\r\n        if (senderRole == Role.Manufacturer) {\r\n            require(\r\n                receiverRole == Role.Dealer || receiverRole == Role.Customer,\r\n                \"Manufacturer can only transfer to Dealer or Customer\"\r\n            );\r\n        } else if (senderRole == Role.Dealer) {\r\n            require(\r\n                receiverRole == Role.Dealer || receiverRole == Role.Customer,\r\n                \"Dealer can only transfer to Dealer or Customer\"\r\n            );\r\n        } else if (senderRole == Role.Customer) {\r\n            require(\r\n                receiverRole == Role.WarrantyCenter,\r\n                \"Customer can only transfer to Warranty Center for warranty\"\r\n            );\r\n        } else {\r\n            revert(\"This role cannot transfer product\");\r\n        }\r\n        require(_to != address(0), \"Invalid address\");\r\n        products[_id].currentOwner = _to;\r\n        _addHistory(_id, \"Transferred\", msg.sender, _note, _to);\r\n    }\r\n\r\n    function warrantyProduct(string memory _id, string memory _note) public productExists(_id) onlyProductOwner(_id) onlyRole(Role.WarrantyCenter) {\r\n        _addHistory(_id, \"Warranty\", msg.sender, _note, products[_id].currentOwner);\r\n    }\r\n\r\n    function repairProduct(string memory _id, string memory _note) public productExists(_id) onlyProductOwner(_id) onlyRole(Role.WarrantyCenter) {\r\n        _addHistory(_id, \"Repair\", msg.sender, _note, products[_id].currentOwner);\r\n    }\r\n\r\n    function getProduct(string memory _id) public view productExists(_id) returns (\r\n        string memory, string memory, address, uint256 historyCount\r\n    ) {\r\n        Product storage p = products[_id];\r\n        return (p.productId, p.info, p.currentOwner, productHistory[_id].length);\r\n    }\r\n\r\n    function getProductHistoryLength(string memory _id) public view productExists(_id) returns (uint256) {\r\n        return productHistory[_id].length;\r\n    }\r\n\r\n    function getProductHistoryRecord(string memory _id, uint256 idx) public view productExists(_id) returns (\r\n        string memory, address, uint256, string memory, address\r\n    ) {\r\n        require(idx < productHistory[_id].length, \"Index out of bounds\");\r\n        ProductEventRecord storage rec = productHistory[_id][idx];\r\n        return (rec.action, rec.actor, rec.timestamp, rec.note, rec.newOwner);\r\n    }\r\n\r\n    function _addHistory(string memory _id, string memory _action, address _actor, string memory _note, address _newOwner) internal {\r\n        productHistory[_id].push(ProductEventRecord(\r\n            _id,\r\n            _action,\r\n            _actor,\r\n            block.timestamp,\r\n            _note,\r\n            _newOwner\r\n        ));\r\n        emit ProductEvent(_id, _action, _actor, block.timestamp, _note, _newOwner);\r\n    }\r\n} ",
  "sourcePath": "E:\\blockchain-dntu\\tx3\\lv1\\blockchain_lv2\\contracts\\ProductLifecycle.sol",
  "compiler": {
    "name": "solc",
    "version": "0.8.19+commit.7dd6d404.Emscripten.clang"
  },
  "schemaVersion": "3.4.16",
  "updatedAt": "2025-07-19T06:38:34.654Z",
  "networkType": "ethereum",
  "devdoc": {
    "kind": "dev",
    "methods": {},
    "version": 1
  },
  "userdoc": {
    "kind": "user",
    "methods": {},
    "version": 1
  }
}